:020000040804EE
:10000000D8A101209D010408AB010408AD0104083A
:10001000AF010408B1010408B3010408B5010408E4
:10002000000000000000000000000000B70104080C
:10003000B901040800000000BB010408BD01040868
:10004000BF010408C1010408C301040871DA0408EF
:10005000C7010408C9010408CB010408CD01040844
:10006000CF010408D1010408D3010408D501040814
:10007000D7010408D901040881540408A9540408CC
:10008000DF010408D1540408E3010408B135040871
:1000900095340408E9010408EB010408ED010408A3
:1000A000F5000508B501050855010508F501040826
:1000B0005D020508A9020508FD020508FD01040806
:1000C000FF010408010204080302040805020408F1
:1000D00007020408A51005080B02040821110508F1
:1000E0000F0204085DD70408130204085D04050824
:1000F0001D050508BD0405081B020408ED5404088D
:100100001F020408E5DE04085D0305082502040853
:100110001D0E050829020408BD0305082D02040868
:100120002F02040831020408095504084155040847
:1001300037020408396904083B0204083D02040838
:100140003F0204084102040843020408C1CA04082B
:100150004702040875550408955504084D02040823
:100160004F0204085102040853020408550204080F
:1001700057020408590204085B0204085D020408DF
:100180005F02040861020408DFF80CD000F0C8FA2E
:10019000004800473B950508D8A101203148016877
:1001A00041F47001016030480047FEE7FEE7FEE7DA
:1001B000FEE7FEE7FEE7FEE7FEE7FEE7FEE7FEE717
:1001C000FEE7FEE7FEE7FEE7FEE7FEE7FEE7FEE707
:1001D000FEE7FEE7FEE7FEE7FEE7FEE7FEE7FEE7F7
:1001E000FEE7FEE7FEE7FEE7FEE7FEE7FEE7FEE7E7
:1001F000FEE7FEE7FEE7FEE7FEE7FEE7FEE7FEE7D7
:10020000FEE7FEE7FEE7FEE7FEE7FEE7FEE7FEE7C6
:10021000FEE7FEE7FEE7FEE7FEE7FEE7FEE7FEE7B6
:10022000FEE7FEE7FEE7FEE7FEE7FEE7FEE7FEE7A6
:10023000FEE7FEE7FEE7FEE7FEE7FEE7FEE7FEE796
:10024000FEE7FEE7FEE7FEE7FEE7FEE7FEE7FEE786
:10025000FEE7FEE7FEE7FEE7FEE7FEE7FEE7FEE776
:10026000FEE7000088ED00E0890104082DE9F04177
:100270000024061B254671F1000605DA012400273B
:10028000D0EB070067EB0101161E73F1000605DADB
:100290000027D2EB0702012567EB030300F0CCF93E
:1002A00086460E4617469C46AC4204D00025D0EB4D
:1002B000050E65EB010624B10020D2EB000760EBD0
:1002C000030C704631463A466346BDE8F081202A69
:1002D00004DB203A00FA02F1002070479140C2F19D
:1002E000200320FA03F3194390407047202A04DBCF
:1002F000203A21FA02F00021704721FA02F3D0409F
:10030000C2F12002914008431946704710B5431AC4
:10031000934209D28318881803E010F8011D03F8EE
:10032000011D521EF9D210BD40EA01039B0703D004
:1003300009E008C9121F08C0042AFAD203E011F824
:10034000013B00F8013B521EF9D210BDD2B201E0D0
:1003500000F8012B491EFBD270470022F6E710B5CA
:1003600013460A4604461946FFF7F0FF204610BD23
:10037000421E12F8013F002BFBD111F8013B02F89D
:10038000013B002BF9D1704730B505462A460B4694
:1003900012F8010B13F8014B08B1A042F8D01CB1C0
:1003A000002802D06D1CF1E7284630BD421C10F831
:1003B000011B0029FBD1801A704730B5044600208C
:1003C000034600E05B1C934203D2E05CCD5C401B23
:1003D000F8D030BD0FB400B58DB010A909900B90C6
:1003E00000914FF0FF300A9000200C9005480690D5
:1003F000054807906A4609A80F9900F063F90DB007
:100400005DF814FBE1060408FF0604082DE9FF5F10
:100410001D464FF0FF3BD5E9014691465F464FF040
:100420000008A9697F1C01988847296A8246884785
:100430000028F6D1BAF1FF3F0CD024F4C064002E9E
:1004400019DD600614D5BAF12B0F09D0BAF12D0FC2
:100450000ED103E0584604B0BDE8F09F44F4806438
:10046000A9697F1C01988847761E8246002E02DD0E
:10047000BAF1300F03D0B9F1000F26D032E0A969EC
:10048000761E44F400747F1C019888478246002E33
:1004900005DDBAF1780F06D0BAF1580F03D0B9F1E3
:1004A000000F10D01EE0B9F1000F02D0B9F1100F0B
:1004B00018D1A969761E24F400747F1C019888471E
:1004C0008246102002E0082000E00A20814609E070
:1004D00008FB0908A969761E44F400747F1C019882
:1004E00088478246002E05DD4946504600F0D5F883
:1004F0000028EDDAE96901988847A00502D46FF079
:100500000100A8E7E00725D1600613D5600502D5F4
:10051000C8F1000000E0404629680A1D2A60096809
:10052000220501D5087015E0220701D5088011E0E9
:1005300008600FE02868011D29600068210502D5C8
:1005400080F8008006E0210702D5A0F8008001E0D5
:10055000C0F8008038467EE72DE9FF5FD2E901A7A9
:100560004FF00008916999461446DDF838B04646C8
:1005700001988847054659EA0B0005D009E0A169B2
:10058000761C019888470546216A28468847002836
:10059000F5D1681C03D05FEACA7005D015E04FF0B2
:1005A000FF3004B0BDE8F09F2068011D2160D0F845
:1005B00000800AE05FEACA7001D108F8015BA16916
:1005C000761C7F1E019888470546002F1ADD681C9F
:1005D00018D0B9F1000F0DD0E81705EBD06042112B
:1005E00020F01F0059F822102A1A012090400142E1
:1005F000E0D107E0BBF1000FDCD1216A2846884733
:100600000028D7D0E16901988847BBF1000F07D1D6
:10061000002E05DD5FEACA7002D1002188F80010C3
:10062000A068B84203DDBBF1000F03D017B16FF033
:100630000100B6E73046B4E72DE9F05F054600203B
:1006400092469B4688460646814640241BE0284643
:10065000414647462246FFF749FE53465A46C01ACE
:10066000914110D3114618462246FFF730FE2D1A4D
:1006700067EB01084F46224601200021FFF727FEC5
:1006800017EB00094E41201EA4F10104DFDC4846AF
:1006900031462A464346BDE8F09F3A2800D230381A
:1006A00020F02002412A01D3A2F13700884201D371
:1006B0004FF0FF307047000002681144137801606A
:1006C00018467047D1600449516104491162002104
:1006D0001161114600F096B8B906040845070408F0
:1006E000426842B1016811F8013B23B1521EC0E9D2
:1006F0000012184670470121C160881E7047426889
:100700005AB1C368016843B983688B4205D0491E5A
:10071000521CC0E90012002070474FF0FF307047B4
:10072000064C074D06E0E06840F0010394E807003E
:1007300098471034AC42F6D3FFF72AFD30BA0508CB
:1007400050BA0508C0B24FF4F05100F001B80000F3
:100750007F2801D9002208E0064A02EB5002C007B8
:10076000127800D1120902F00F02012090400840D7
:1007700070470000F0B9050870B58C1810F8015BDF
:1007800015F0070301D110F8013B2A1106D110F82A
:10079000012B03E010F8016B01F8016B5B1EF9D12E
:1007A0002B0705D40023521E0DD401F8013BFAE7B4
:1007B00010F8013BCB1A921C03E013F8015B01F81F
:1007C000015B521EF9D5A142D8D3002070BD0000B4
:1007D00001460C2904DA044850F8210000887047CB
:1007E0004FF0FF30FBE7000020040020102800DB62
:1007F0007047024A42F8201000BFF9E764730020F6
:10080000120A00002DE9F34F8BB04FF0000801F100
:100810000C000C464FF0010B46460DF1080A019002
:100820006269012101989047051E2DD0252D2CD0FD
:10083000216A8847C0B16269012101989047216A05
:1008400088470028F7D1411E62690198904700E06F
:10085000761CA1690B988847216A88470028F7D140
:10086000E1690B988847DBE7A1690B988847074641
:10087000A84201D1761CD3E7E1690B9888477F1C19
:1008800002D1B8F1000F6FD046E1002762693D4602
:100890003946019890472A2804D1626901210198BC
:1008A00090470125DFF88492626901210198904701
:1008B000A0F130010A290AD24F45E5DC07EB870198
:1008C00000EB4107303FDFD445F01005ECE7E906C7
:1008D00001D46FF000476C280AD04C2814D0682847
:1008E00015D06A280DD074281CD07A281AD01DE0A3
:1008F00062690121019890476C2802D045F00405F7
:1009000014E045F002050DE045F020050AE06269BB
:10091000012101989047682802D045F0080505E0BC
:1009200045F400656269012101989047C4E90157C7
:1009300065283DD019DC58287AD00CDC452837D002
:1009400004DC252826D0412831D131E046282FD09B
:1009500047282CD12CE05B2877D0612828D0632849
:100960007CD0642823D15AE0D0E06F2848D008DC3E
:1009700066281DD067281BD0692821D06E2816D183
:1009800027E0702845D0732868D0752847D078288C
:100990000DD14DE0A1690B988847054625283FF405
:1009A00069AFE1690B9888476D1C3FF46AAFB3E00B
:1009B00023466A466FF001000B99AFF300809EE07A
:1009C00045F040006060A80723464FF0000236D48F
:1009D0003EE0E8077FF447AF2068011D2160006812
:1009E000290501D506701BE7290701D5068017E701
:1009F000A90703D5F117C0E9006111E706600FE709
:100A000045F040006060A80723464FF0080216D466
:100A10001EE040F60E0125EA0100606016E045F098
:100A200040006060A80723464FF00A0207D40FE099
:100A300045F040006060A80708D5234610226FF0FB
:100A400001000B99AFF3008059E007E02346102224
:100A50006FF001000B99FFF7D9FC50E04FF000094F
:100A60004F464B46632802D05B2806D040E0E8069C
:100A700001D40120A06001273AE0626901210198B8
:100A800090475E2805D14FF00109626949460198F7
:100A90009047216939B900210A46534643F821207D
:100AA000491C0829FADBB0B3216969B9C11700EB09
:100AB000D16253110AEB830122F01F02821A012036
:100AC0000B68904003430B606269012101989047D5
:100AD0005D28E8D1B9F1000F09D00020514651F846
:100AE0002020D24341F82020401C0828F7DB02AB2D
:100AF000224600976FF001000B99FFF72DFD0028AB
:100B00000CDA401C08D1BBF1000F05D04FF0FF30CC
:100B10000DB0BDE8F08FFFE74046F9E7E90701D1E6
:100B200008F1010806444FF0000B79E6CCCCCC0C60
:100B300013200FE00949096851F8201049B1014616
:100B4000C21700EB92729210521C044B1B681A657C
:100B500002E0401E0028EDDA00BF70478C0700203D
:100B60000C4A1168B1F8D428012A11D10022A1F849
:100B7000D428002006E00022074B1B6843F8202001
:100B8000421CD0B21428F6DB0022034B1B681A6506
:100B900070470000940700208C07002030B5012822
:100BA00018DB052816DC032914DC1F2A12DC0423B9
:100BB000C3EB80030B44084C246854F82330012411
:100BC0009440A3430424C4EB80040C44024D2D68DC
:100BD00045F8243030BD00008C07002030B50128D6
:100BE00018DB052816DC032914DC1F2A12DC042379
:100BF000C3EB80030B44084C246854F823300124D1
:100C0000944023430424C4EB80040C44024D2D681B
:100C100045F8243030BD00008C07002010B5734823
:100C2000D0F85C0320B100210B200CF076FD03E02E
:100C300001210B200CF071FD6C48D0F8EC03012869
:100C400004D1002211460320FFF7C8FF6748D0F8FF
:100C5000F003012804D1002211460420FFF7BEFF53
:100C60006248D0F85C0304280CD26048D0F85C03DA
:100C700040B15E48D0F8E803022803D101215B4867
:100C8000C0F8B81B5948D0F85C03042806D30121EA
:100C90005648C0F8F0130421C0F8B81B5348D0F8E8
:100CA0005C03032803D101215048C0F8EC13002451
:100CB0000BE0E0B2FFF78CFD012805D1601CC2B249
:100CC00000210420FFF78AFF641C032CF1DB0320C2
:100CD000FFF77EFD20B9042200211046FFF77EFFBA
:100CE0000420FFF775FD20B9052200210420FFF73D
:100CF00075FF0520FFF76CFD20B9062200210420B6
:100D0000FFF76CFF0620FFF763FD20B907220021E3
:100D10000420FFF763FF00242EE0E0B206F0C2FBE0
:100D2000B0F5805F05D0E0B206F0BCFBB0F5005F27
:100D300005D1E2B201210846FFF750FF04E0E2B21C
:100D400001210846FFF72AFFE0B206F0ABFBB0F541
:100D5000807F05D0E0B206F0A5FBB0F5007F05D19D
:100D6000E2B200210120FFF739FF04E0E2B20021E6
:100D70000120FFF713FF641C0C2CCEDB012007F0D1
:100D8000B5FC20B901211948C0F8F81303E000218F
:100D90001648C0F8F813154890ED340A00F5FA50DB
:100DA000D0ED680AB4EEE00AF1EE10FA04D80121A1
:100DB0000E48C0F8FC1303E000210C48C0F8FC13F7
:100DC000022001F074FC05280FD0022004F0DAFDA7
:100DD00001280AD1022007F089FC30B9022001F075
:100DE00066FC10B1022001F081FC10BD6C0D0020EA
:100DF0000EB542F210704FF47A71009144F25463D0
:100E0000154ACDE90110A2F69441A1F5437018F0FE
:100E100021F806F0E7F901F031FE0F4801F0ADFCD2
:100E200017F0FAFF00210D48C0F8A4180121C0F8FE
:100E3000EC130B4807F086FC07F0FCFB0321074886
:100E4000C0F8E81B002004E00022064941F82020F9
:100E5000401C0A28F8DB0EBD0C1D00206C0D002084
:100E6000C85A0020202F002070B52DED028B0446BB
:100E7000F0EE408AB0EE608A0C2C04D94FF0FF30BF
:100E8000BDEC028B70BDBCEEE80A10EE102AD1B2A8
:100E9000E0B20EF09FFFBDEEC80A10EE100A07493F
:100EA00041F82400B0EE480A204603F001FC054654
:100EB000E0B2294606F0C8FBE2E70000245D00200E
:100EC00070B504460D46012D00DD70BD2046FFF7CC
:100ED0007FFCA84209D00020204941F824000FF0EF
:100EE00069F81F4941F82400EFE72046FFF770FC3E
:100EF000A8420CD1194850F8240040B901201749E4
:100F000041F824000FF056F8154941F82400134821
:100F100050F8240001281ED12046FFF759FCA842B2
:100F200019D10FF047F80E4951F82410401AB0F5C6
:100F3000FA7F10D3204601F0E8FB0121204601F0A2
:100F4000BDFB072004EB4401C1EB4411054A02EB51
:100F5000810181F8640000BFB7E70000E47300205E
:100F6000A4730020246C002000EB4001C1EB401171
:100F7000084A02EB8101B1F8601049B9002100EB89
:100F80004002C2EB4012034B03EB820282F8641072
:100F900070470000246C00207047000000EB400107
:100FA000C1EB4011084A02EB8101B1F8601049B968
:100FB000002100EB4002C2EB4012034B03EB820224
:100FC00082F8641070470000246C00207047000015
:100FD00010B5002070490870D8E06F48007800EB29
:100FE0004001C1EB40106D4901EB8000B0F860009A
:100FF00048B16B4868490978405C20B901216848CC
:10100000654A12788154664863490978405C012832
:1010100004D002287ED00328FFD1B1E05E480078DA
:1010200003F09AFB5C49097801EB4102C2EB4111E4
:101030005A4A02EB8101C8655748007800EB40012D
:10104000C1EB4010114601EB8000C06D5249097898
:1010500001EB4102C2EB4111504A02EB81010969E7
:10106000884213D34C48007800EB4001C1EB40109C
:10107000114601EB800000694749097801EB410204
:10108000C2EB4111454A02EB8101C8654248007834
:1010900000EB4002C2EB4010404A02EB8000C16D01
:1010A0003D4800780CF0A2F93B4800780CF040F97C
:1010B0003949097801EB4102C2EB4111374A02EB91
:1010C000810191F96C10344A127802EB4203C3EBB0
:1010D0004212324B03EB8202526D00FB01202E497B
:1010E000097801EB4102C2EB41111A4602EB810182
:1010F0008865294800780CF043F948B92848264902
:101100000978405C401CC1B22548234A12788154BA
:1011100036E0FFE7204800780CF00AF91E4909780C
:1011200001EB4102C2EB41111C4A02EB810191F932
:101130006C10194A127802EB4203C3EB4212174BB0
:1011400003EB8202526D00FB01201349097801EB89
:101150004102C2EB41111A4602EB81018865002071
:101160000D49097801EB4102C2EB41111A4602EB2D
:101170008101A1F860000A49074A1278885400BF2B
:1011800000BF05480078401C0349087002480078F9
:101190001028FFF622AF10BDB0070020246C0020FD
:1011A000247400207FB504460D4604EB4400C0EBD8
:1011B0004410AB4901EB8000B0F8600000287DD1FD
:1011C00004EB4400C0EB441001EB8000806D04EBA5
:1011D0004401C1EB4411A24A02EB8101486504EBD2
:1011E0004400C0EB4410114601EB8000406804EB62
:1011F0004401C1EB441102EB8101C86504EB4400DA
:10120000C0EB4410114601EB8000C06D04EB4401BB
:10121000C1EB441102EB8101096988420ED304EB52
:101220004400C0EB4410114601EB8000006904EB60
:101230004401C1EB441102EB8101C86504EB440099
:10124000C0EB4410864A02EB8000C16D20460CF0D2
:10125000CDF8002D7FDD0121204601F089F904EB56
:101260004400C0EB44107E4901EB8000C06D04EBEC
:101270004401C1EB44117A4A02EB810109698842B9
:101280000ED304EB4400C0EB4410114601EB800088
:10129000006904EB4401C1EB441102EB8101C86514
:1012A00004EB4400C0EB44106D4A02EB800041683F
:1012B00020460CF09BF82946204600E0CDE00CF0DB
:1012C0004DF9012004EB4401C1EB4411644A02EBE7
:1012D0008101A1F8600004EB4400C0EB441011460A
:1012E00001EB8000406904EB4401C1EB441102EBC7
:1012F0008101896804EB4402C2EB4412584B03EBB2
:101300008202126D04EB4403C3EB4413544E06EB0C
:101310008303DB69CDE90032CDE9021004EB440020
:10132000C0EB441006EB8000036904EB4400C0EB03
:10133000441006EB8000426804EB4400C0EB44100C
:1013400006EB800090F82010204604F05FF80020A3
:1013500004B070BDFFE7002D7DDA4FF0FF3120466D
:1013600001F006F904EB4400C0EB44103C4901EBEA
:101370008000C06D04EB4401C1EB4411384A02EB1C
:101380008101096988420ED304EB4400C0EB44108C
:10139000114601EB8000006904EB4401C1EB4411EC
:1013A00002EB8101C86504EB4400C0EB44102C4AF9
:1013B00002EB8000416820460CF018F86942204694
:1013C0000CF0CCF8012004EB4401C1EB4411244A99
:1013D00002EB8101A1F8600004EB4400C0EB441073
:1013E000114601EB8000406904EB4401C1EB44115C
:1013F00002EB8101896804EB4402C2EB4412184BF2
:1014000003EB8202126D04EB4403C3EB4413144E4E
:1014100006EB8303DB69CDE90032CDE9021004EB72
:101420004400C0EB441006EB8000036904EB440069
:10143000C0EB441006EB8000426804EB4400C0EBB4
:10144000441006EB800090F82010204603F0DEFFE9
:1014500000207DE7FFE700207AE74FF0FF3077E7D5
:10146000246C002010B504460C2C02D94FF0FF303C
:1014700010BDE0B264210EF0ADFCE0B206F048F819
:10148000F6E7000070B504460D462078012805D126
:10149000607818B9012060700020A0706078012881
:1014A00004D0022808D003286CD163E02846FFF757
:1014B000D9FF0220607065E0284601F0F8F80028A6
:1014C00057D1072D52D2DFE805F0040F1A25303B23
:1014D00046002D4890ED640AF0EE400AB2EE040A90
:1014E0002846FFF7C1FC41E0274890ED720AF0EE74
:1014F000400AB2EE040A2846FFF7B6FC36E022485E
:1015000090ED680AF0EE400AB2EE040A2846FFF7B2
:10151000ABFC2BE01C4890ED6A0AF0EE400AB2EEFC
:10152000040A2846FFF7A0FC20E0174890ED6C0A5B
:10153000F0EE400AB2EE040A2846FFF795FC15E0EB
:10154000114890ED6E0AF0EE400AB2EE040A284609
:10155000FFF78AFC0AE00C4890ED700AF0EE400AB2
:10156000B2EE040A2846FFF77FFC00BF00BF03204D
:10157000607007E0284601F09AF810B9002020704A
:10158000607000BF00BF70BDAC2C002010B50446D9
:1015900004EB4400C0EB4410FE4901EB800090F8DE
:1015A0006400052817D104EB4400C0EB441001EBA4
:1015B0008000B0F8620070B9012004EB4401C1EB77
:1015C0004411F44A02EB8101A1F862000EF0F2FC32
:1015D000F14941F8240004EB4400C0EB4410ED490C
:1015E00001EB800090F86400052832D104EB440040
:1015F000C0EB441001EB8000406B50B30EF0DAFCFE
:10160000E54951F82410401A04EB4401C1EB4411A0
:10161000E04A02EB8101496B88421AD90221204637
:1016200001F04CF8204601F070F8002004EB440172
:10163000C1EB4411D74A02EB8101A1F862000720F7
:1016400004EB4401C1EB441102EB810181F8640019
:1016500010BD04EB4400C0EB4410CE4901EB800008
:10166000B0F862001C287CD2DFE800F07B0E9ED52B
:10167000FDFCFBFAF9F8F7F6F5F4F3F2F1F0EFEE12
:10168000EDECEBEAE9E8E7E604EB4400C0EB4410DC
:10169000C04901EB800090F8380000F00100E8B389
:1016A00004EB4400C0EB441001EB800090F83E00D6
:1016B000A8B104EB4401C1EB4411B64A02EB81012D
:1016C00091F8440000F082FF04EB4401C1EB4411A7
:1016D000B04A02EB810191F8421088422AD004EB13
:1016E0004400C0EB4410AB4901EB8000406A04EBBE
:1016F0004401C1EB4411A74A02EB810108614FF09C
:1017000010412046FFF74EFD04EB4400C0EB4410AF
:10171000A04901EB8000B0F8620000E00AE0401C44
:1017200004EB4401C1EB44119A4A02EB8101A1F898
:10173000620038E004EB4400C0EB4410954901EB33
:10174000800090F8380000F0080058B1102004EB39
:101750004401C1EB44118F4A02EB8101A1F8620000
:1017600021E003E204EB4400C0EB4410894901EBA3
:10177000800090F8380000F0100050B1162004EB03
:101780004401C1EB4411834A02EB8101A1F86200DC
:1017900009E0042004EB4401C1EB44117D4A02EB53
:1017A0008101A1F86200E1E104EB4400C0EB4410C8
:1017B000784901EB800090F83E0058B304EB4401F7
:1017C000C1EB4411734A02EB810191F8440000F02F
:1017D000FDFE04EB4401C1EB44116E4A02EB8101B2
:1017E00091F84210884215D1204600F08EFF04EB9C
:1017F0004400C0EB4410674901EB8000B0F8620080
:10180000401C04EB4401C1EB4411624A02EB81012C
:10181000A1F86200AAE104EB4400C0EB44105D496A
:1018200001EB8000B0F8600050BB04EB4400C0EB5B
:10183000441001EB800017E0F4E3F4E3F4E3F4E395
:10184000F4E3F4E3F4E3C0E38BE358E32EE3CEE206
:10185000A7E285E23AE21CE2E5E188E16AE133E1F0
:10186000C9E0ABE06EE00CE0B0F86200401C04EBB5
:101870004401C1EB4411474A02EB8101A1F8620027
:1018800074E104EB4400C0EB4410424901EB8000DA
:1018900090F8380000F00200F0B304EB4400C0EB15
:1018A000441001EB800090F83D00A8B104EB440126
:1018B000C1EB4411374A02EB810191F8430000F07B
:1018C00085FE04EB4401C1EB4411324A02EB810175
:1018D00091F8411088422AD004EB4400C0EB441038
:1018E0002C4901EB8000406A04EB4401C1EB441138
:1018F000284A02EB810108614FF0E0412046FFF7E2
:1019000051FC04EB4400C0EB4410224901EB800081
:10191000B0F86200401C00E009E004EB4401C1EBB8
:1019200044111C4A02EB8101A1F8620009E0072082
:1019300004EB4401C1EB4411164A02EB8101A1F80A
:10194000620013E104EB4400C0EB4410114901EBC9
:10195000800090F83D0080B304EB4401C1EB4411DA
:101960000C4A02EB810191F8430000F02FFE04EBDA
:101970004401C1EB4411074A02EB810191F8411087
:1019800088421AD1204600F0C0FE04EB4400C0EBB0
:10199000441003E0246C002034740020FE4901EB65
:1019A0008000B0F86200401C04EB4401C1EB44111C
:1019B000F94A02EB8101A1F86200D7E004EB440090
:1019C000C0EB4410F44901EB8000B0F8600088B926
:1019D00004EB4400C0EB441001EB8000B0F862005F
:1019E000401C04EB4401C1EB4411EB4A02EB8101C2
:1019F000A1F86200BAE004EB4400C0EB4410E649F1
:101A000001EB800090F8380000F0010090B304EB87
:101A10004400C0EB441001EB800090F8380000F067
:101A2000020038BB04EB4400C0EB441001EB800023
:101A3000406A04EB4401C1EB4411D74A02EB810137
:101A400008614FF0E0412046FFF7ACFB04EB440097
:101A5000C0EB4410D04901EB8000B0F86200401C9C
:101A600004EB4401C1EB4411CB4A02EB8101A1F824
:101A7000620028E0FFE704EB4400C0EB4410C649D5
:101A800001EB8000406A04EB4401C1EB4411C24AFF
:101A900002EB810108614FF010412046FFF782FB05
:101AA00004EB4400C0EB4410BB4901EB8000B0F8EC
:101AB0006200401C04EB4401C1EB4411B64A02EB46
:101AC0008101A1F86200FEE304EB4400C0EB441086
:101AD000B14901EB800090F8300050B304EB4401B1
:101AE000C1EB4411AC4A02EB8101488E00F06EFD5F
:101AF00004EB4401C1EB4411A74A02EB810191F8C8
:101B00003110884215D1204600F0FFFD04EB44005F
:101B1000C0EB4410A04901EB8000B0F86200401C0B
:101B200004EB4401C1EB44119B4A02EB8101A1F893
:101B30006200C8E304EB4400C0EB4410964901EB9B
:101B40008000B0F8600088B904EB4400C0EB44109A
:101B500001EB8000B0F86200401C04EB4401C1EBD3
:101B600044118D4A02EB8101A1F86200ABE304EB62
:101B70004400C0EB4410884901EB800090F830002D
:101B8000E0B304EB4401C1EB4411834A02EB810151
:101B9000488E00F01BFD04EB4401C1EB44117E4A6A
:101BA00002EB810191F83110884228D104EB440006
:101BB000C0EB4410114601EB8000806A04EB440145
:101BC000C1EB441102EB810108614FF0E041204676
:101BD000FFF7E8FA04EB4400C0EB44106E4901EB58
:101BE0008000B0F86200401C04EB4401C1EB4411DA
:101BF000694A02EB8101A1F8620013E0FFE704EB00
:101C00004400C0EB4410644901EB8000B0F862006E
:101C1000401C04EB4401C1EB44115F4A02EB81011B
:101C2000A1F862004FE304EB4400C0EB44105A49B2
:101C300001EB800090F83000A0B104EB4401C1EB4F
:101C40004411554A02EB8101488E00F0BFFC04EBC1
:101C50004401C1EB4411504A02EB810191F831106B
:101C6000884215D0204600F050FD04EB4400C0EB44
:101C70004410494901EB8000B0F86200401C04EBBD
:101C80004401C1EB4411444A02EB8101A1F8620016
:101C900019E304EB4400C0EB44103F4901EB800022
:101CA000B0F8600088B904EB4400C0EB441001EBCD
:101CB0008000B0F86200401C04EB4401C1EB441109
:101CC000354A02EB8101A1F86200FCE204EB44001A
:101CD000C0EB4410304901EB8000C06A60B304EBF4
:101CE0004400C0EB441001EB8000006904EB4401A8
:101CF000C1EB4411284A02EB8101086104EB440066
:101D0000C0EB441002EB8000C16A2046FFF74AFA9C
:101D100004EB4400C0EB44101F4901EB8000B0F815
:101D20006200401C04EB4401C1EB44111A4A02EB6F
:101D30008101A1F8620012E004EB4400C0EB441002
:101D4000154901EB8000B0F86200401C04EB44012F
:101D5000C1EB4411104A02EB8101A1F86200B2E22A
:101D600004EB4400C0EB44100B4901EB8000B0F8D9
:101D70006000A8B904EB4400C0EB441001EB800004
:101D8000B0F86200401C04EB4401C1EB4411024A6C
:101D900002EB810102E00000246C0020A1F8620047
:101DA00091E2002004EB4401C1EB4411FE4A02EB36
:101DB0008101886504EB4401C1EB441102EB810110
:101DC000086504EB4401C1EB441102EB810181F889
:101DD0006400204600F034FC002004EB4401C1EB19
:101DE0004411F14A02EB8101A1F862006BE204EBBD
:101DF0004400C0EB4410EC4901EB800090F8300047
:101E0000A0B104EB4401C1EB4411E74A02EB8101AC
:101E1000488E00F0DBFB04EB4401C1EB4411E24AC5
:101E200002EB810191F8311088421FD004EB44008D
:101E3000C0EB4410DC4901EB8000406A04EB440134
:101E4000C1EB4411D84A02EB810108614FF0E04137
:101E50002046FFF7A7F9112004EB4401C1EB441120
:101E6000D14A02EB8101A1F862001EE004EB4400BC
:101E7000C0EB4410CC4901EB8000406A04EB440104
:101E8000C1EB4411C84A02EB810108614FF0E04107
:101E90002046FFF787F9122004EB4401C1EB4411FF
:101EA000C14A02EB8101A1F862000CE204EB44009C
:101EB000C0EB4410BC4901EB800090F83000E8B161
:101EC00004EB4401C1EB4411B74A02EB8101488E97
:101ED00000F07CFB04EB4401C1EB4411B24A02EB7D
:101EE000810191F83110884208D1122004EB44019D
:101EF000C1EB441102EB8101A1F86200E3E104EBC4
:101F00004400C0EB4410A84901EB800090F8300079
:101F1000A0B104EB4401C1EB4411A34A02EB8101DF
:101F2000488E00F053FB04EB4401C1EB44119E4A80
:101F300002EB810191F83110884211D0204600F067
:101F4000E4FB0EF037F8994941F82400132004EB24
:101F50004401C1EB4411944A02EB8101A1F86200F3
:101F6000B1E104EB4400C0EB44108F4901EB800069
:101F7000B0F8600040BB0EF01DF88C4951F82410F9
:101F8000401A40F6340188421ED304EB4400C0EBF3
:101F90004410854901EB8000806A04EB4401C1EBE9
:101FA0004411814A02EB810108614FF01041204643
:101FB000FFF7F8F8142004EB4401C1EB44117A4A0E
:101FC00002EB8101A1F862007DE104EB4400C0EB6B
:101FD0004410754901EB800090F8300008B304EB21
:101FE0004401C1EB4411704A02EB8101488E00F0BC
:101FF000EDFA04EB4401C1EB44116B4A02EB8101A1
:1020000091F8311088420CD1204600F07EFB15205B
:1020100004EB4401C1EB4411634A02EB8101A1F8D6
:10202000620050E13AE10CE1D7E09FE075E015E095
:10203000FFE704EB4400C0EB44105B4901EB800078
:10204000B0F8600048B90F2004EB4401C1EB441123
:10205000554A02EB8101A1F8620034E104EB44002F
:10206000C0EB4410504901EB800090F83000A0B163
:1020700004EB4401C1EB44114B4A02EB8101488E51
:1020800000F0A4FA04EB4401C1EB4411464A02EB10
:10209000810191F8311088421FD004EB4400C0EB5D
:1020A0004410414901EB8000406A04EB4401C1EB5C
:1020B00044113D4A02EB810108614FF01041204676
:1020C000FFF770F8172004EB4401C1EB4411364AC6
:1020D00002EB8101A1F862001EE004EB4400C0EBBA
:1020E0004410314901EB8000406A04EB4401C1EB2C
:1020F00044112D4A02EB810108614FF01041204646
:10210000FFF750F8182004EB4401C1EB4411264AB4
:1021100002EB8101A1F86200D5E004EB4400C0EBC2
:102120004410214901EB800090F83000E8B104EB45
:102130004401C1EB44111C4A02EB8101488E00F0BE
:1021400045FA04EB4401C1EB4411174A02EB81014B
:1021500091F83110884208D1182004EB4401C1EBFA
:10216000441102EB8101A1F86200ACE004EB4400F1
:10217000C0EB44100C4901EB800090F83000C8B16E
:1021800004EB4401C1EB4411074A02EB8101488E84
:1021900000F01CFA04EB4401C1EB4411024A02EBCB
:1021A000810191F8311003E0246C00207474002048
:1021B000884211D0204600F0A8FA0DF0FBFE4449F9
:1021C00041F82400192004EB4401C1EB4411414AB9
:1021D00002EB8101A1F8620075E004EB4400C0EB62
:1021E00044103C4901EB8000B0F8600040BB0DF0AA
:1021F000E1FE374951F82410401A40F63401884274
:102200001ED304EB4400C0EB4410324901EB8000C4
:10221000806A04EB4401C1EB44112E4A02EB8101B8
:1022200008614FF0E0412046FEF7BCFF1A2004EBA6
:102230004401C1EB4411274A02EB8101A1F862007D
:1022400041E004EB4400C0EB4410224901EB800064
:1022500090F8300008B304EB4401C1EB44111D4A6F
:1022600002EB8101488E00F0B1F904EB4401C1EBAF
:102270004411184A02EB810191F8311088420CD1C7
:10228000204600F042FA1B2004EB4401C1EB44114C
:10229000104A02EB8101A1F8620014E004EB440053
:1022A000C0EB44100B4901EB8000B0F8600048B966
:1022B0000F2004EB4401C1EB4411064A02EB8101FB
:1022C000A1F8620000BF00BF00BFFFF7C1B9000066
:1022D00074740020246C002070B50446E0B205F050
:1022E00005F980B10A4850F824100A4850F8240033
:1022F0000D1A002D01DB284600E06842064951F81E
:102300002410884201DA002070BD0120FCE70000A3
:10231000245D0020FC0E0020A801002010B504461A
:1023200004EB4400C0EB44103A4901EB800090F804
:102330006C00012830D104EB4400C0EB441001EBE9
:10234000800090F83D0038B304EB4401C1EB441128
:10235000304A02EB810191F8430000F037F904EBB9
:102360004401C1EB44112B4A02EB810191F8411069
:10237000884211D14FF48071204600F09FF9204629
:1023800000F0C3F9072004EB4401C1EB4411214ADA
:1023900002EB810181F8640004EB4400C0EB4410BF
:1023A0001C4901EB800090F96C00B0F1FF3F30D187
:1023B00004EB4400C0EB441001EB800090F83E00B9
:1023C00038B304EB4401C1EB4411124A02EB810122
:1023D00091F8440000F0FAF804EB4401C1EB441119
:1023E0000C4A02EB810191F84210884211D14FF45E
:1023F0008051204600F062F9204600F086F907205F
:1024000004EB4401C1EB4411024A02EB810181F863
:10241000640010BD246C002010B5044604EB440099
:10242000C0EB4410354901EB800090F83F0060B3E9
:1024300004EB4400C0EB441001EB800090F86C000A
:10244000012822D104EB4400C0EB441001EB8000D2
:10245000806D04EB4401C1EB4411284A02EB810179
:10246000896C884211DD4FF40071204600F026F996
:10247000204600F04AF9072004EB4401C1EB441167
:102480001E4A02EB810181F8640004EB4400C0EBBA
:1024900044101A4901EB800090F8400068B304EB47
:1024A0004400C0EB441001EB800090F96C00B0F1E7
:1024B000FF3F22D104EB4400C0EB441001EB80004D
:1024C000806D04EB4401C1EB44110C4A02EB810125
:1024D000C96C884211DA4FF40051204600F0EEF842
:1024E000204600F012F9072004EB4401C1EB44112F
:1024F000024A02EB810181F8640010BD246C0020C7
:102500007047000070B52DED028B0446F0EE408A56
:10251000B0EE608A0C2C04D94FF0FF30BDEC028B7A
:1025200070BDBCEEE80A10EE102AD1B2E0B20DF098
:1025300051FC0D4850F8240000EE100AB8EEC00A15
:1025400030EE080ABDEEC00A10EE100A074941F845
:102550002400B0EE480A204602F0AAF80546E0B290
:10256000294605F0B3F8D9E7FC0E0020245D0020D1
:1025700070B504460D4604EB4400C0EB441011490D
:1025800001EB800080F86C50002D0DDD0E4850F8F6
:10259000240020B90121204603F002FA11E00021B5
:1025A000204603F0FDF90CE0074850F8240020B95C
:1025B0000021204603F0F4F903E00121204603F056
:1025C000EFF970BD246C00206473002010B5044640
:1025D000802C04D2E0B206F0A7F8C0B210BD802C67
:1025E00008D3902C06D2A4F18001C8B2FEF7F0F80F
:1025F000C0B2F3E7902C08D3A02C06D2A4F190012E
:10260000C8B206F00AFAC0B2E8E7C02C09D3D02C51
:1026100007D2A4F1C001C8B2002104F0EFF9C0B2A2
:10262000DCE7D02C09D3E02C07D2A4F1D001C8B24A
:10263000012104F0E3F9C0B2D0E70020CEE70000AA
:1026400000EB4001C1EB4011144A52F8211000EB9D
:102650004002C2EB4012114B03EB8202516000EBCF
:102660004001C1EB40111A4602EB8101C96800EB41
:102670004002C2EB401203EB8202116100EB400109
:10268000C1EB40111A4602EB8101896900EB40025F
:10269000C2EB401203EB8202D1617047246C002030
:1026A0000146142901D2142070470846FCE710B5F2
:1026B0000446E0B204F01AFF10BD000010B5102867
:1026C00010DA00EB4002C2EB4012074B03EB820230
:1026D000926E0A4300EB4003C3EB4013024C04EB41
:1026E00083039A6610BD0000246C002010B50446D8
:1026F0000C2C02D94FF0FF3010BDE0B264210DF078
:1027000069FBE0B205F0F0FBF6E710B504462046A1
:102710000AF05EFF10BD000000EB4001C1EB40116C
:10272000084A02EB8101B1F8601049B9002100EBC1
:102730004002C2EB4012034B03EB820282F86410AA
:1027400070470000246C002000EB4001C1EB4011F9
:10275000084A02EB8101B1F8601049B9002100EB91
:102760004002C2EB4012034B03EB820282F864107A
:1027700070470000246C00207047F0B587B0054614
:10278000002428E104EB041005EB8000008D30B13B
:10279000012833D0022866D003282ED1B0E00020D3
:1027A0000290039004900590009004EB041105EB57
:1027B000810101900B7E04EB041105EB81010A7D80
:1027C000E0B2012105F004F804EB041005EB8000F1
:1027D00090ED0D0ABDEEC00A8DED000A04EB041168
:1027E00005EB810191ED0E0ABDEEC00A10EE102A34
:1027F000E0B20023194605F08FFACEE000200290E7
:10280000039004900590009004EB041105EB810106
:1028100001900B7E04EB041105EB81010A7DE0B20F
:10282000012104F0D5FF04EB041005EB8000D0ED8E
:102830000D0AB0EE600A204601F03AFF064604EBAE
:10284000041005EB8000D0ED0E0AB0EE600A2046C1
:1028500001F02EFF0746E0B201233A4619460096E2
:1028600005F05AFA99E004EB041005EB800090F8AB
:10287000321004EB041005EB800090F830000123C7
:1028800004EB041205EB820292F82E20CDE902231C
:10289000CDE9040104EB041005EB800090F82C0056
:1028A00004EB041105EB8101CDE900300B7E04EB54
:1028B000041105EB81010A7DE0B2012104F088FFDB
:1028C00004EB041005EB8000D0ED0D0AB0EE600AB9
:1028D000204601F0EDFE064604EB041005EB8000F7
:1028E000D0ED0E0AB0EE600A204601F0E1FE074688
:1028F000E0B200233A461946009605F00DFA4CE086
:1029000004EB041005EB800090F8320004EB041196
:1029100005EB810191F83010012304EB041205EB63
:10292000820292F82E20CDE90223CDE9041004EBB7
:10293000041005EB800090F82C0004EB041105EB6B
:102940008101CDE900300B7E04EB041105EB810120
:102950000A7DE0B2012104F03BFF04EB041005EB1B
:102960008000D0ED0D0AB0EE600A204601F0A0FE16
:10297000064604EB041005EB8000D0ED0E0AB0EE25
:10298000600A204601F094FE0746E0B201233A4671
:102990001946009605F0C0F900BF00BF04EB041211
:1029A00005EB820292F82A10E0B204F0FDFE04EB7F
:1029B000041005EB8000416A006ACDE9000104EBD8
:1029C000041105EB810101F11406E0B214310EC9C6
:1029D00000F066F9641C0C2CFFF6D4AE07B0F0BD15
:1029E0002DE9F041C4B004460E461546984600272E
:1029F0004FF4887220496846FDF788FC8DF8034043
:102A00008DF813408DF823408DF833408DF8434006
:102A10008DF853408DF863408DF873408DF88340F6
:102A20008DF893408DF8A3408DF8B3408DF8C340E6
:102A30008DF8D3408DF8E3408DF8F3408DF80341D5
:102A40004FF4887269462846FDF760FC00BF0EE02F
:102A5000A879032802D0A879042801D10120687040
:102A6000284610358680701C86B2781CC7B2112F9C
:102A7000EED344B0BDE8F081D4B105087CB50121A6
:102A80008048A0F8B81F0021A0F8FC1F00F57A606C
:102A9000A0F8A010A0F8E410A0F82811A0F86C117C
:102AA000A0F8B011A0F8F411A0F83812A0F87C1228
:102AB000A0F8C012A0F804130024DEE0B7EE000A6C
:102AC00004EB0411704800EB810080ED100A012135
:102AD00004EB04126C4800EB8200C163002104EB9C
:102AE0000412694800EB820041839FED680A04EB01
:102AF0000411654800EB810080ED090A9FED640A2E
:102B000004EB0411604800EB810080ED080A04EB3F
:102B100004115D4800EB81004461022104EB0412C2
:102B2000594800EB82004185002104EB041256480D
:102B300000EB82000185574850F8240000EE100A8F
:102B4000B8EEC00A04EB04114F4800EB810080EDA1
:102B5000010A504850F8240000EE100AB8EEC00AEE
:102B600004EB0411484800EB810080ED030A49485A
:102B7000A03000EB840090ED000A04EB0411424801
:102B800000EB810080ED070A4248503800EB8400DA
:102B900090ED000A04EB04113B4800EB810080ED4E
:102BA000000A3C48503800EB840090ED000A04EB2A
:102BB0000411354800EB810080ED040A3148D0F85B
:102BC000B00888B92F48D0F8B80868B931485030F3
:102BD00000EB840090ED000A04EB04112A4800EB9E
:102BE000810080ED020A1CE09FED2B0A264880ED53
:102BF000020A9FED290A80ED130A9FED270A80ED56
:102C0000240A9FED260A80ED570A9FED240A80EDE5
:102C1000350A9FED220A80ED680A9FED200A80EDBB
:102C2000460A6CB904EB0411174800EB810090EDE3
:102C3000070A04EB0411144800EB810080ED080A38
:102C4000144AF03252F82410E0B2FDF7CFFD04EB45
:102C500004110D4800EB8100416A006A04EB041284
:102C6000CDE90001084901EB820101F11405E0B250
:102C700014310EC900F014F8641C0C2CFFF61EAFC2
:102C80007CBD00006C0D00200C1D00200000000029
:102C900000007A441C3000200000FA430000484342
:102CA0000FB4FEB504460C2C02DDFEBC5DF814FB2F
:102CB000DDED0D0AB0EE600A204601F0F9FC054694
:102CC000DDED0C0AB0EE600A204601F0F1FC06468C
:102CD000DDED0B0AB0EE600A204601F0E9FC074684
:102CE000CDE901650090BDF82A00C3B2BDF8280007
:102CF000C2B20998C1B2204604F034FF00BFD4E745
:102D00000FB42DE9FE438146B9F10C0F03DDBDE898
:102D1000FE035DF814FBDDED0B0AB0EE600A4846D9
:102D200001F0C6FC05469DED0C0ABCEEC00A10EE93
:102D3000107ADDED0D0AB0EE600A484601F0B8FCED
:102D400006469DED0E0ABCEEC00A10EE108ADDEDBF
:102D50000F0AB0EE600A484601F0AAFC044640F6AD
:102D6000B830854200D90546C82F00D9C827B8F128
:102D7000C80F01D94FF0C80840F6B830844200D9D6
:102D800004460B48864200D90646AE4200D86E1C67
:102D9000A64200D8661C002033463A462946CDE9B3
:102DA00000840290484604F0AFFD00BFAFE700008A
:102DB000400D030010B5002412E0E0B204F084FBE3
:102DC0000F4941F82400084650F82410204601F02D
:102DD0009DFC0B48C83800EB840080ED000A641CA1
:102DE0000C2CEADB002407E0E0B204F07FFB81B2A8
:102DF000044820F81410641C0C2CF5DB10BD0000F6
:102E0000FC0E0020D00D002070B504460D464FF496
:102E1000FA613D48C0F8D8100221A0F57A60C0F8E8
:102E2000BC1F3A49485D05F061FC012800D12070C3
:102E30002078012805D1607818B901206070002041
:102E4000A0706078012802D002285BD12CE02F49C5
:102E5000485D05F04BFCC0B96068401C60602C48C0
:102E60006168D0F8BC0F81420BD90020606028480F
:102E7000D0F8A00F012804D1EAB200210220FDF70A
:102E8000ADFE0020207060700DE0224901EB85004E
:102E90000DF047FF2049485D00210AF03EFC00206C
:102EA0006060022060702DE01849485D05F01EFC4E
:102EB00040B91949485D01210AF02FFC002020701B
:102EC00060701EE0134901EB850001210DF01AFF2F
:102ED00001460D48D0F8D800814212D30E49485D12
:102EE00001210AF01AFC0A48D0F8A00F012805D1E8
:102EF000A81CC2B200210220FDF770FE0020207045
:102F0000607000BF00BF70BDAC2C0020FE00002030
:102F10000C1D002054010020000100202DE9F04F7D
:102F20009DB004460426002704EB8401CD480068C8
:102F30000C3000EB810090F8018004EB8401C9485B
:102F400000680C3000EB810090F8029004EB8401E3
:102F5000C44800680C3000EB810090F803A004EB3B
:102F60008401C04800680C3000EB810090F804B088
:102F700004EB8401BB4800680C3000EB8100407911
:102F80001C9004EB8401B74800680C3000EB810012
:102F90008568B54A92E80B00D268CDE91A32CDE9CE
:102FA000180108EB4801C81DC11700EB5171C1F3AE
:102FB000C7018DF860108DF86340AB4B10330FCB19
:102FC000CDE91623CDE9140109F10700C11700EB83
:102FD0005171C9108DF850108DF85340A24B203319
:102FE0000FCBCDE91223CDE910018DF843409E4B64
:102FF00030330FCBCDE90E23CDE90C010AF10700E8
:10300000C11700EB5171C9108DF830108DF83340A5
:10301000954B40330FCBCDE90A23CDE9080108F1E8
:103020000700C11700EB5171C9108DF820108DF801
:1030300023408D4B50330FCBCDE90623CDE904015E
:103040008DF81340884B6033D3E901021968DB68BF
:10305000CDE90223CDE900108DF8034040350A2C5C
:103060007DDA00BF35E03B462A4631462046FFF771
:10307000B7FC7C4800688078C1197A480068D43071
:1030800000EB41100560774800688078C1197548E9
:103090000068D43000EB4110477700217148006888
:1030A0008078C2196F480068D43000EB4210017775
:1030B0006C4800688078C1196A480068D43000EB19
:1030C0004110846006F1110086B205F58875781C00
:1030D000C7B24745C7DBB8F1000F1FD0102218A9AF
:1030E0002846FDF713F9002711E05E480068817853
:1030F0005C480068D43000EB4110456059480068D6
:103100008078401C574909688870781CC7B24745C9
:10311000EBDB284610358680701C86B2B9F1000FB3
:1031200010D0102214A92846FDF7F0F84D48006889
:1031300000F2D45000EB041005602846103586805C
:10314000701C86B2B8F1000F12D0102210A92846C8
:10315000FDF7DCF84348006800F2D45000E07DE061
:1031600000EB04104560284610358680701C86B23E
:10317000BAF1000F12D010220CA92846FDF7C6F8AC
:103180003848006800F2D45000EB0410856001203C
:103190006870284610358680701C86B2B8F1000F22
:1031A00012D0102208A92846FDF7B0F82D48006873
:1031B00000F2D45000EB0410C5600120687028466E
:1031C00010358680701C86B2BBF1000F20D000271E
:1031D0001CE0102204A92846FDF798F804EB8401AE
:1031E000204800680C3000EB8100C06838B904EB5F
:1031F00084011C4800680C3000EB8100C560284643
:1032000010358680701C86B2781CC7B25F45E0DB43
:103210001C9818B300271EE0102269462846FDF7C7
:1032200075F804EB84010F4800680C3000EB810056
:10323000006938B904EB84010A4800680C3000EBDF
:103240008100056101206870284610358680701C59
:1032500086B2781CC7B21C988742DDDB1DB0BDE882
:10326000F08F0000F0010020E4B205082DE9FC47D2
:1032700004460D4616461F46DDF828904FF000081C
:1032800014B10DB106B117B90120BDE8FC87601E6D
:10329000C4B2681EC5B2701EC6B2781E87B20120C5
:1032A0006D4908800880022100230A46CDE90010FC
:1032B0006A4803F0C9FF0120022100230A46CDE934
:1032C00000100146654803F0BFFF09220121634851
:1032D00003F09AFF09220021604803F095FF0120C6
:1032E0005F49088000205F4908600846006840F098
:1032F0000100086008E008F101001FFA80F8B8F149
:10330000640F01DD0220C0E75648001D006800F090
:1033100001000028EFD05348006852490860084671
:10332000006840F0400008600846006808600846F1
:10333000006840F010000860084600680860084611
:1033400000680860002047491C3108600846006892
:1033500040EA897008600846006840EA0460086036
:103360000846006840EA055008600846006840EAE0
:10337000064008600846006838430860394800681D
:1033800020F001003749086009E008F101001FFA48
:1033900080F84FF6F070804501DD032075E7314875
:1033A000001D006800F001000028EED12E480068E2
:1033B00040F001002C4908602B481C30006820F0C8
:1033C000010029491C31086027480C30006840F092
:1033D000010025490C3108602348001D006822497E
:1033E000091D08602048143000681F491431086026
:1033F00000201D494031086000211B484430016015
:1034000019481C30006840F0010017491C31086061
:1034100015480068002014490860124814300068FC
:1034200040F001000F4914310860022313220021EB
:10343000012005F0FBFC0B481430006840F002004E
:10344000084914310860022314220021012005F0EC
:10345000EDFC002019E700000C064742000C02407A
:10346000640847420064004000660040014621B9FC
:103470000748006800F003007047012905D104489F
:10348000001D006800F00300F6E70020F4E70000EC
:103490000C64004000B500F007F8012001494874B1
:1034A00000BD0000446900200FB50020FFF7DEFFDB
:1034B00010B9002004B000BD0648411E02AB03AAAB
:1034C000CDE90010411F002000F006F8014819382E
:1034D000007EEFE75D690020F0B5DDE90554324E6E
:1034E00006EB0016366806F004061670167836B934
:1034F0002D4E06EB00163668760D0E6005E02A4E5E
:1035000006EB00163668F6080E60274E06EB00162E
:10351000366806F002061E70234E06EB001676682B
:1035200006F00F062E70204E06EB0016B6682670C9
:103530001D4E06EB0016B668360A66701A4E06EB8C
:103540000016B668360CA670174E06EB0016B66865
:10355000360EE670144E06EB0016F6682671124E13
:1035600006EB0016F668360A66710F4E06EB00167B
:10357000F668360CA6710C4E06EB0016F668360E91
:10358000E67130B9094E366846F02006074F3E60B6
:1035900009E0012807D1054E361D366846F02006A1
:1035A000024F3F1D3E60F0BDB06500400C6400401E
:1035B0001248006800F0010028B11048006840F08F
:1035C00001000E4908600D48006800F4807028B1C1
:1035D0000A48006840F4807008490860074800689D
:1035E00000F4803028B10548006840F48030034979
:1035F000086000200249086070470000086400402D
:1036000044690020F0B505460E46059C3748006821
:1036100000F0806008B1002101E0FF20F0BD00272C
:10362000334800EB011007601EB9C5F30A056D05AC
:1036300002E025F06045ED002D4800EB0110006828
:1036400028432B4F07EB01173860294800EB011086
:10365000006840EA8607264800EB0110076024480E
:1036600000EB0110006840EA4207214800EB01101E
:10367000076003F00F031E4800EB0110406820F0C4
:103680000F071B4800EB01104760194800EB0110C1
:1036900040681843164F07EB01177860E079000681
:1036A000A77940EA0740677940EA0720277938433D
:1036B0000F4F07EB0117F860E0780006A77840EAA3
:1036C0000740677840EA072027783843084F07EB20
:1036D0000117B860064800EB0110006840F00107D0
:1036E000034800EB01100760084697E708640040B4
:1036F000806500402DE9F04704460D469146C4F32D
:103700000466C4F30A2704F0FF0868B2164908707B
:103710000846007830B115480068007891F900102B
:1037200088421ED11248007886421AD1114800887A
:10373000874216D110480078804512D10B480068A6
:10374000C07948B9084890F900200C49074800683A
:103750000830FCF7DBFD02E00020BDE8F087002028
:10376000FBE74FF0FF30F8E7E4010020D001002034
:10377000C8010020CA010020CD010020D401002092
:1037800010B523480068C07918B900202149087095
:103790000EE01F480068007840B21E4908700846D5
:1037A00090F900201A48016808311B48FCF7AEFD6B
:1037B00017480068C0781949087015480068808863
:1037C00017490880174800781649087010480068A3
:1037D000C0791549087011480078C006C0080978FA
:1037E00001F0010140EAC1500D490988C1F30A0105
:1037F00040EA01200B49097808430C490860054854
:103800000178054A0948006800F0E0FD10BD00009D
:10381000D0010020E5010020DC010020C8010020CB
:10382000CA010020CD010020CC010020EC010020C5
:1038300010B55048006828B14E48406810B90120C2
:103840004C4948604B484068012802D002287DD18D
:103850000EE000F093FD50B9FFF792FF0CF0AAFBC9
:103860004549086043484068401C424948607FE041
:103870004249434800F066FD42490870084690F905
:103880000000002840DB084601783C4A3C480068BC
:10389000FFF730FF78B93C480068807830B13A488B
:1038A00000688078401E38490968887000203149D6
:1038B0000860486028E0344800688078401C32493D
:1038C00009688870304800688079032804D02E4841
:1038D00000688079042802D10120264948602A48DE
:1038E0000068807805280FDB0020224908604860C6
:1038F00026480068806824490968CA7801219140F7
:1039000008432249096888600CF054FB1A49096889
:10391000401A0F282AD91C4800688078401C1A4990
:1039200009688870184800688079032804D0164810
:1039300000688079042802D100200E4948601248AE
:1039400000688078052811DB002000E00FE00949BD
:10395000086048600D48006880680B490968CA78AB
:1039600001219140084309490968886000E000BFCF
:1039700000BF10BDF801002008020020D401002083
:10398000E8010020E4010020D0010020F001002027
:1039900070B586B00446002508E00021FE4800EB23
:1039A000C410643040F82510681CC5B2072DF4DB44
:1039B000204609F0D1FCF84901EBC4118865F648AE
:1039C00000EBC410007800287ED1F34800EBC4104F
:1039D000C069002877D0F04800EBC410006A0028C6
:1039E00071D0ED4800EBC410C068EB4901EBC41185
:1039F0008968401A00EE100AB8EE400ADFEDE70AC7
:103A000060EE200AE44800EBC41090ED070AB8EE1F
:103A1000400A80EE801ABCEEC10ADF4800EBC410F9
:103A200080ED050ADC4800EBC4104369DA4800EB7E
:103A3000C410C268D84800EBC410816802A802F024
:103A4000C3F9DDE90201CDE90401D34800EBC4105C
:103A500005998166D04800EBC410C168CE4800EBE0
:103A6000C4100069081A00EE100AB8EE400ADFED33
:103A7000CB0A60EE200AC84800EBC41090ED080A9B
:103A8000B8EE400A80EE801ABCEEC10AC24800EBD4
:103A9000C41080ED060AC04800EBC4108369BE481C
:103AA00000EBC4100269BC4800EBC410C16802A856
:103AB00002F01CFDDDE90201CDE90401B64800EB8E
:103AC000C4100599816700E0A2E0B34800EBC41080
:103AD000816EB14800EBC410806F0144AE4800EB2A
:103AE000C410806D814212D8AB4800EBC410816DC8
:103AF000A94800EBC410806E091AA74800EBC41057
:103B0000806F091AA44800EBC410016764E2A24860
:103B100000EBC41090ED160AB8EE400ADFEDA00AE3
:103B200060EE200A9C4800EBC41090ED070AB8EE46
:103B3000400A60EE800A984800EBC410C1699648BC
:103B400000EBC410006A084400EE100AB8EE400A08
:103B500080EE801ABCEEC10A10EE106A8E4800EBAF
:103B6000C41042698C4800EBC4103346816802A837
:103B700009F04CFDDDE90201CDE90401864800EBC6
:103B8000C4100499C160844800EBC4100599816693
:103B9000814800EBC41083697F4800EBC4100269C0
:103BA0007D4800EBC410C16802A802F09FFCDDE96B
:103BB0000201CDE90401784800EBC4100599816742
:103BC000754800EBC410816E734800EBC410806F21
:103BD0000144714800EBC410806D814212D86E48D8
:103BE00000EBC410816D6C4800EBC410806E091AA4
:103BF000694800EBC410806F091A674800EBC410D5
:103C000001679BE30021644800EBC410016795E362
:103C1000614800EBC41000780128F2D15E4800EB47
:103C2000C410C0690028ECD05B4800EBC410006AE7
:103C30000028E6D0584800EBC41090ED070AB8EE13
:103C4000400ADFED580A20EE200ADFED540A80EE2C
:103C5000201A514800EBC41080ED091A4E4800EBC1
:103C6000C410C0684C4901EBC4118968401A00EEC9
:103C7000100AB8EE400ADFED490A60EE200A464815
:103C800000EBC41090ED070AB8EE400A9FED461A0B
:103C900020EE010A80EE801ABDEEC10A3E4800EB1C
:103CA000C41080ED050A3C4800EBC41090ED050AF5
:103CB000B8EE400A384800EBC410D0ED090A9FED79
:103CC000371A20EE811AC0EE010AB6EE000A30EE75
:103CD000800ABDEEC00A304800EBC41080ED0B0A2C
:103CE0002D4800EBC41090ED080AB8EE400ADFED55
:103CF0002D0A20EE200ADFED290A80EE201A264840
:103D000000EBC41080ED0A1A234800EBC410C16810
:103D1000214800EBC4100069081A00EE100AB8EE42
:103D2000400ADFED1E0A60EE200A1B4800EBC410BB
:103D300090ED080AB8EE400A9FED1B1A20EE010A2A
:103D400080EE801ABDEEC10A134800EBC41080ED6E
:103D5000060A114800EBC41090ED060AB8EE400ABE
:103D60000D4800EBC410D0ED0A0A9FED0C1A20EEAE
:103D7000811AC0EE010AB6EE000A30EE800ABDEEEE
:103D8000C00A054800EBC41080ED0C0A024800EBA5
:103D9000C410C36A004809E0B474002000007A44EB
:103DA0006666663FCDCCCC3E9A99193F00EBC410B5
:103DB0004269FE4800EBC410816802A801F080FF50
:103DC000DDE90201CDE90401F84800EBC4100499D3
:103DD000C163F64800EBC41005994166F34800EB57
:103DE000C410C068F14901EBC41189680144EF486F
:103DF00000EBC410C06B091AEC4800EBC41001645E
:103E0000EA4800EBC4104369E84800EBC410026CB8
:103E1000E64800EBC410C16B02A802F0F1F8DDE93E
:103E20000201CDE90401E14800EBC41004990164EA
:103E3000DE4800EBC41005998166DC4800EBC41035
:103E4000C06A0090D94800EBC4104369D74800EB22
:103E5000C410C268D54800EBC410016C02A801F080
:103E600083FEDDE90201CDE90401D04800EBC41076
:103E70000599C166CD4800EBC410036BCB4800EB3D
:103E8000C4108269C94800EBC410C16802A802F0DE
:103E900083FADDE90201CDE90401C44800EBC41056
:103EA00004994164C14800EBC41005994167BF48BB
:103EB00000EBC410C168BD4800EBC41000690144A8
:103EC000BA4800EBC410406C091AB84800EBC410A3
:103ED0008164B64800EBC4108369B44800EBC41099
:103EE000826CB24800EBC410416C02A802F060FC86
:103EF000DDE90201CDE90401AC4800EBC4100499EE
:103F00008164AA4800EBC41005998167A74800EBBB
:103F1000C410006B0090A54800EBC4108369A3484F
:103F200000EBC4100269A14800EBC410816C02A828
:103F300002F074F9DDE90201CDE904019B4800EBD0
:103F4000C4100599C167994800EBC410416E9748A9
:103F500000EBC410806E0144944800EBC410C06EA6
:103F60000144924800EBC410406F01448F4800EBBD
:103F7000C410806F01448D4800EBC410C06F014431
:103F80008A4800EBC410806D814226D2874800EB3E
:103F9000C410416E854800EBC410806E0144834814
:103FA00000EBC410C06E0144804800EBC410406FA9
:103FB00001447E4800EBC410806F01447B4800EB55
:103FC000C410C06F0144794800EBC410806D411AE1
:103FD000764800EBC4100167B0E10021734800EBA4
:103FE000C4108166714800EBC41081676F4800EB14
:103FF000C410806D6D4901EBC411C96948436B4918
:1040000001EBC411CA69694901EBC411096A114481
:10401000B0FBF1F005909DED050AB8EE400A5FEDAA
:10402000A10A60EE200A614800EBC41090ED070A77
:10403000B8EE401A80EE810AF6EE000A30EE200A51
:10404000BDEEC00A10EE100A584901EBC411896890
:10405000884208D2554800EBC4108168534800EBF1
:10406000C410C16024E09DED050AB8EE400ADFED02
:10407000500A60EE200A4D4800EBC41090ED070A8C
:10408000B8EE400A80EE801A484800EBC41090ED6C
:10409000020AB8EE400A31EE400AF6EE000A30EEAF
:1040A000200ABDEEC00A414800EBC41080ED030AAF
:1040B0003E4800EBC410C0683C4901EBC41189685C
:1040C000884212D1002508E00021384800EBC410D6
:1040D000643040F82510681CC5B2072DF4DB0021C0
:1040E000324800EBC410016728E1304800EBC410EF
:1040F000C0682E4901EBC4118968401A00EE100A0D
:10410000B8EE400ADFED2B0A60EE200A274800EBEC
:10411000C41090ED070AB8EE400A80EE801ABCEE9B
:10412000C10A224800EBC41080ED0B0A1F4800EBC7
:10413000C410C06A1D4901EBC411C9694843410854
:104140001A4800EBC4104161184800EBC41090ED10
:10415000070AF8EE400A154800EBC41090ED080A73
:10416000B8EE400A80EE801A104800EBC41090EDC3
:104170000B0AB8EE400A61EE000A0C4800EBC410CE
:1041800090ED070AB8EE401A084800EBC41090ED15
:10419000080AB8EE400AC1EE001A20EEA10ABCEEF1
:1041A000C00A024800EBC41006E00000B47400200E
:1041B0000000FA440000C84380ED0C0A604800EBA0
:1041C000C410006B5E4901EBC411096A4843410801
:1041D0005B4800EBC41081610021594800EBC4101A
:1041E0008166574800EBC4108167554800EBC41046
:1041F000C36A534800EBC4104269514800EBC41035
:10420000816802A801F05CFDDDE90201CDE904014D
:104210004B4800EBC4100499C163494800EBC4103B
:1042200005994166464800EBC410C06A00904448B6
:1042300000EBC4104369424800EBC410C268404818
:1042400000EBC410C16B02A801F08EFCDDE9020195
:10425000CDE904013A4800EBC4100599C16638481D
:1042600000EBC410036B364800EBC410826934487D
:1042700000EBC410C16802A802F08EF8DDE902016B
:10428000CDE904012E4800EBC410049941642C4888
:1042900000EBC41005994167294800EBC410006B7E
:1042A0000090274800EBC4108369254800EBC41038
:1042B0000269234800EBC410416C02A801F0AEFF74
:1042C000DDE90201CDE904011D4800EBC4100599A8
:1042D000C1671B4800EBC410416E194800EBC410C5
:1042E000C06E0144164800EBC410406F01441448EE
:1042F00000EBC410C06F0144114800EBC410806D86
:1043000081421BD20E4800EBC410416E0C4800EBFA
:10431000C410C06E01440A4800EBC410406F014451
:10432000074800EBC410C06F0144054800EBC410FF
:10433000806D411A024800EBC410016706B070BDE1
:10434000B474002070B504460D460B48407C78B12B
:104350000020094948740846406920600846027EEA
:1043600019312846FBF7D2FF0348007E40B270BDEA
:104370004FF0FF30FBE7000044690020014800785F
:10438000704700004469002038B50446FA2C08D173
:1043900000200C230A22072100900120FEF766FF6F
:1043A00013E0B4F57A7F08D1002003230A22072105
:1043B00000900120FEF75AFF07E0002006230A22A2
:1043C000072100900120FEF751FF38BDF8B50546E2
:1043D0000C4616461748006848BB0120154908607E
:1043E00008464560224631460930FBF78FFF1148E9
:1043F00004720068C8B10F484068B0F5006F0AD277
:104400000C4809300B4900900B7A0022486811468D
:10441000FFF7F8F809E007480930064900900B7AE1
:10442000002248680121FFF7EDF80020F8BD4FF0A9
:10443000FF30FBE74469002010B52DED028B0446E8
:10444000B0EE408AB0EE000A68EE000A00EE104AB4
:10445000B8EE400A80EE201AF0EE418AB0EE680A0B
:1044600011F012F9F0EE000A20EE200ABDEC028BEA
:1044700010BD000000224FF4803105E00A480068BA
:1044800000F0800000B103E0081EA1F10101F5D1A8
:1044900000BF09B90320704740F2FF50024B1B1DBB
:1044A00018601046F7E70000342C0140024605E092
:1044B0001548016801F0450000B100E0F8E700BFD1
:1044C00001F0040028B104200F4B1B1D18600320CD
:1044D000704701F0010020B101200B4B1B1D18603B
:1044E000F6E7094824380068904201D01020EFE731
:1044F00040F2FF50044B1B1D186003482038006831
:1045000008231840C0B2E3E7342C014010B5002066
:104510004FF4803205E0164B196801F0450303B1F2
:1045200003E0131EA2F10102F5D100BF12B101F0A8
:1045300004034BB103200E4B1B1D1B6843F0040307
:104540000B4C241D236010BD01F0010343B1012079
:10455000074B1B1D1B6843F00103054C241D236002
:1045600040F2FF53024C241D236000BFEBE7000024
:10457000342C014005E00E48016801F0450000B10F
:1045800000E0F8E700BF01F0040048B10848001D52
:10459000006840F00400064A121D106003207047B6
:1045A00040F2FF50024A121D10600020F7E70000A1
:1045B000342C014070B503460C46002505E0244824
:1045C000026802F0450000B100E0F8E700BF02F029
:1045D000040048B11E48001D006840F004001C4E55
:1045E000361D3060032070BD02F0010048B118484C
:1045F000001D006840F00100154E361D306001209E
:10460000F1E7134824380068984201D01020EAE707
:1046100040F2FF500E4E361D30600D4820380168C4
:1046200001F4604018B9080C20802846DBE701F44B
:10463000005008B11320D6E701F4804008B11020E3
:10464000D1E701F4004008B10F20CCE72846CAE7C3
:10465000342C014010B500204FF4803205E0134B9C
:10466000196801F0450303B103E0131EA2F1010232
:10467000F5D100BF12B101F004034BB103200B4B85
:104680001B1D1B6843F00403084C241D236010BD50
:1046900001F0400343B10020044B1B1D1B6843F095
:1046A0004003024C241D236000BFF0E7342C01407E
:1046B000014601EB0112134800EB8200D0ED100A15
:1046C0009FED111AF4EEC10AF1EE10FA18DD01EBBC
:1046D00001120C4800EB8200D0ED0F0AF8EE600AE0
:1046E00060EE800A01EB0112064800EB820090EDBB
:1046F000101AC0EE811AFDEEE10A10EE900A704722
:104700000120FCE70C1D00206F12833A00EB001320
:10471000104A02EB8302D26BC2B100EB00130D4AC8
:1047200002EB8302D2ED100A00EE101AB8EEC00AB6
:1047300060EE800A00EB0013064A02EB830292ED62
:104740000F0AB8EE401A80EE810A7047B7EE000AF1
:10475000FBE700000C1D002010B50446204608F0C1
:10476000E7FDFD4901EBC4114865FB4800EBC410AF
:10477000416DF94800EBC410806D814204D10020E6
:10478000F54901EBC4114870F34800EBC410007800
:1047900000287DD1F04800EBC4104078022804D0F6
:1047A000042876D0062875D1F1E0EB4800EBC41060
:1047B000416DE94800EBC410006F0144E64800EB8E
:1047C000C410806F0144E44800EBC410806D814246
:1047D00065D8E14800EBC410416DDF4800EBC41020
:1047E000C06D81426DD3DC4800EBC41090ED050A2A
:1047F000B8EE400AF6EE000A20EE200A9FEDD71A26
:10480000C0EE010AB6EE000A30EE800ABDEEC00A24
:1048100010EE100AD04901EBC411C96C0844CE490E
:1048200001EBC411C864CC4800EBC410C16CCA4889
:1048300000EBC410C068814204D2C74800EBC4102A
:10484000C06C03E0C44800EBC410C068C24901EB6F
:10485000C411C864C04800EBC41090ED130AB8EE50
:10486000400AF6EE000A60EE200A9FEDBC1A80EEC8
:10487000810AF6EE000A30EE200ABDEEC00A10EE04
:10488000100AB54901EBC411C96D0144B24802E0F8
:10489000E3E017E0E0E000EBC410C16511E0AE48D2
:1048A00000EBC410006F60B1AB4800EBC410C068EF
:1048B000A94901EBC411C8640420A74901EBC41144
:1048C0004870C9E0A44800EBC410416DA24800EB59
:1048D000C410806F0144A04800EBC410806D814279
:1048E00054D39D4800EBC410816E9B4800EBC4106C
:1048F000006F0144984800EBC410C165964800EB76
:10490000C41090ED060AB8EE400AF6EE000A20EE5A
:10491000200ADFED920A80EE201AB6EE000A71EE50
:10492000000A8D4800EBC41090ED130AB8EE400A5F
:1049300030EE600ABDEEC00A874800EBC41080ED7F
:10494000130A854800EBC41090ED130AB8EE400A34
:10495000F6EE000A20EE200A9FED801AC0EE010A52
:10496000B6EE000A30EE800ABDEEC00A10EE100A64
:10497000794901EBC411C96D0144774800EBC410BB
:10498000C1650620744901EBC411487064E07248A7
:1049900000EBC410416D704800EBC410C06D814243
:1049A00059D36D4800EBC41090ED060AB8EE400AEA
:1049B000F6EE000A20EE200ADFED680A80EE201AEB
:1049C000B6EE000A71EE000A634800EBC41090EDE9
:1049D000130AB8EE400A30EE600ABDEEC00A5E4827
:1049E00000EBC41080ED130A5B4800EBC410C16CEF
:1049F000594800EBC4100069814204D9564800EBC5
:104A0000C410C06C03E0544800EBC4100069524964
:104A100001EBC411C864504800EBC41090ED130AB8
:104A2000B8EE400AF6EE000A20EE200ADFED4B0A4F
:104A300080EE201AB6EE000A31EE000ABDEEC00A82
:104A400010EE100A444901EBC411C96D01444248FB
:104A500000EBC410C16500BFFDE33F4800EBC4108C
:104A6000407808287CD2DFE800F07B0483F8F7F672
:104A7000F5F4394800EBC410416D374800EBC41021
:104A8000406E81426ED2344800EBC410416D324812
:104A900000EBC410C06D814269D32F4800EBC410F5
:104AA00090ED0D0AB8EE400AF6EE000A60EE200A1C
:104AB0009FED2A1A80EE810AF6EE000A30EE200AF7
:104AC000BDEEC00A10EE100A234901EBC411C96CF7
:104AD0000844214901EBC411C8641F4800EBC4100D
:104AE00090ED130AB8EE400AF6EE000A60EE200AD6
:104AF0009FED1A1A80EE810AF6EE000A30EE200AC7
:104B0000BDEEC00A10EE100A134901EBC411C96DC5
:104B10000144114800EBC410C1650F4800EBC410FC
:104B2000416B0D4800EBC41090ED0B0AB8EE400A43
:104B3000F6EE000A60EE200AB7EE001AB6EE000AA2
:104B400000EE810ABDEEC00A10EE100A08440249C8
:104B500001EBC41148630AE0B474002000007A44F9
:104B6000FEE3FFE70220FE4901EBC411487025E295
:104B7000FB4800EBC410416EF94800EBC410806E96
:104B80000844F74901EBC411496D884266D9F448DD
:104B900000EBC410416DF24800EBC410C06D8142BF
:104BA00056D3EF4800EBC41090ED050AB8EE400A6A
:104BB000F6EE000A20EE200A5FED180A80EE201AB9
:104BC000B6EE000A31EE000ABDEEC00A10EE100A81
:104BD000E34901EBC411C96C0844E14901EBC4117C
:104BE000C864DF4800EBC410C16CDD4800EBC410A2
:104BF000C068814204D2DA4800EBC410C06C03E004
:104C0000D74800EBC410C068D54901EBC411C86493
:104C1000D34800EBC41090ED130AB8EE400AF6EE4C
:104C2000000A20EE200A5FED330A80EE201AB6EE6D
:104C3000000A31EE000ABDEEC00A10EE100AC849A3
:104C400001EBC411C96D0144C54800EBC410C16536
:104C500059E0E6E243E2B2E1FEE055E0C04800EB95
:104C6000C41090ED050AB8EE400ABD4800EBC41030
:104C7000D0ED0B0AF8EE600AB6EE001A60EE810A7B
:104C8000B7EE001A00EEC10AF6EE000A30EE200A76
:104C9000BDEEC00AB24800EBC41080ED0D0AB0486A
:104CA00000EBC410806E08B3AD4800EBC41090ED6B
:104CB000050AB8EE400AAA4800EBC410D0ED0B0A72
:104CC000F8EE600AB6EE001A60EE810AB7EE001A3E
:104CD00000EEC10AF6EE000A30EE200ABDEEC00A70
:104CE0009F4800EBC41080ED0D0A07E09C4800EBE4
:104CF000C41040699A4901EBC411486303209849E4
:104D000001EBC411487079E3954800EBC410416E83
:104D1000934800EBC410806E0144914800EBC4102E
:104D2000C06E08448E4901EBC411496D88427DD99B
:104D30008B4800EBC410416D894800EBC410C06D76
:104D4000814274D3864800EBC41090ED0D0AB8EE92
:104D5000400AF6EE000A60EE200A1FED801A80EE8F
:104D6000810AF6EE000A30EE200ABDEEC00A10EE0F
:104D7000100A7B4901EBC411C96C0844784901EB66
:104D8000C411C864764800EBC410C16C744800EBD1
:104D9000C410C068814204D2714800EBC410C06CDA
:104DA00003E06F4800EBC410C0686D4901EBC4110B
:104DB000C8646B4800EBC41090ED130AB8EE400ACB
:104DC000F6EE000A60EE200A1FED9C1A80EE810AC2
:104DD000F6EE000A30EE200ABDEEC00A10EE100A10
:104DE0005F4901EBC411C96D01445D4800EBC4107B
:104DF000C1655B4800EBC41090ED0D0AB8EE400AA7
:104E0000574800EBC410D0ED0B0AF8EE600AB6EE7E
:104E1000001A60EE810AB7EE001A00EEC10AF6EE43
:104E2000000A30EE200ABDEEC00A01E006E012E002
:104E30004B4800EBC41080ED0D0A0CE0484800EB35
:104E4000C410C068464901EBC411C8640420444939
:104E500001EBC4114870D1E2414800EBC410416E2F
:104E60003F4800EBC410806E01443D4800EBC41085
:104E7000C06E01443A4800EBC410006F0844384942
:104E800001EBC411496D88426CD8354800EBC41061
:104E9000416E334800EBC410806E0144304800EB93
:104EA000C410C06E01442E4800EBC410006F0144D2
:104EB0002B4800EBC410C165294800EBC41090EDED
:104EC0000C0AB8EE400AF6EE000A60EE200AB7EED1
:104ED000001AB6EE000A00EE810ABDEEC00A2048B4
:104EE00000EBC41080ED0E0A1D4800EBC41090EDDD
:104EF0000E0AB8EE400AF6EE000A20EE200A1FED78
:104F0000E91AC0EE010A164800EBC41090ED130A2E
:104F1000B8EE400A30EE600AF6EE000A30EE200AE3
:104F2000BDEEC00A0E4800EBC41080ED130A0C4819
:104F300000EBC41090ED130AB8EE400AF6EE000A3A
:104F400060EE200A1FEDFB1A80EE810AF6EE000AE1
:104F500030EE200ABDEEC00A10EE100A004902E051
:104F6000B47400202AE001EBC411C96D0144FD486E
:104F700000EBC410C165FB4800EBC410816BF9481D
:104F800000EBC41090ED0C0AB8EE400AF6EE000AF1
:104F900060EE200AB7EE001AB6EE000A00EE810AB3
:104FA000BDEEC00A10EE100A0144EE4800EBC4103A
:104FB00081630520EB4901EBC41148701EE2E9480A
:104FC00000EBC410416EE74800EBC410806E014452
:104FD000E44800EBC410C06E0144E24800EBC4108A
:104FE000006F0144DF4800EBC410406F0844DD4906
:104FF00001EBC411496D88426BD9DA4800EBC4104B
:10500000416DD84800EBC410C06D814266D3D548CD
:1050100000EBC41090ED0E0AB8EE400AF6EE000A5E
:1050200020EE200A9FEDD01AC0EE010ACD4800EB19
:10503000C41090ED130AB8EE400A30EE600AF6EEA6
:10504000000A30EE200ABDEEC00AC64800EBC410CC
:1050500080ED130AC34800EBC41090ED130AB8EEBC
:10506000400AF6EE000A60EE200A9FEDBF1A80EEBD
:10507000810AF6EE000A30EE200ABDEEC00A10EEFC
:10508000100AB84901EBC411C96D0144B54800EBE1
:10509000C410C165B34800EBC410816BB14800EB8C
:1050A000C41090ED0C0AB8EE400AF6EE000A60EE6D
:1050B000200AB7EE001AB6EE000A00EE810ABDEE35
:1050C000C00A10EE100A0144A64800EBC410816328
:1050D00004E00620A34901EBC41148708EE1A14809
:1050E00000EBC410416E9F4800EBC410806E014479
:1050F0009C4800EBC410C06E01449A4800EBC410F9
:10510000006F0144974800EBC410406F014495487C
:1051100000EBC410806F0844924901EBC411496D43
:1051200088424DD98F4800EBC410416D8D4800EB8B
:10513000C410C06D814273D38A4800EBC41090ED57
:10514000060AB8EE400AF6EE000A20EE200A9FEDAD
:10515000861AC0EE010A834800EBC41090ED130AD2
:10516000B8EE400A30EE600AF6EE000A30EE200A91
:10517000BDEEC00A7B4800EBC41080ED130A7948ED
:1051800000EBC41090ED130AB8EE400AF6EE000AE8
:1051900060EE200A9FED741A80EE810AF6EE000A96
:1051A00030EE200ABDEEC00A10EE100A6D4901EB88
:1051B000C411C96D01446B4800EBC410C1652FE0F8
:1051C000684800EBC410806FE8B1664800EBC4107B
:1051D00090ED060AB8EE400A624800EBC410D0ED2C
:1051E0000C0AF8EE600AB6EE001A00EEC10AF6EEFE
:1051F000000A30EE200ABDEEC00A5A4800EBC41087
:1052000080ED0E0A07E0574800EBC410816955484D
:1052100000EBC41081630720524901EBC4114870B0
:10522000ECE0504800EBC410416E4E4800EBC41057
:10523000806E01444B4800EBC410C06E01444948E5
:1052400000EBC410006F0144464800EBC410406FEF
:105250000144444800E0D2E000EBC410806F0144F8
:10526000404800EBC410C06F08443E4901EBC41134
:10527000496D884275D93B4800EBC410416D3948EF
:1052800000EBC410C06D81426BD3364800EBC410F4
:1052900090ED0E0AB8EE400AF6EE000A20EE200A63
:1052A0009FED311AC0EE010A2E4800EBC41090EDBC
:1052B000130AB8EE400A30EE600AF6EE000A30EE4D
:1052C000200ABDEEC00A274800EBC41080ED130A87
:1052D000244800EBC410C06CB0F1E04F04D2214868
:1052E00000EBC410C06C03E01E4800EBC410006962
:1052F0001C4901EBC411C8641A4800EBC410C16C0E
:10530000184800EBC4100069814204D9154800EB2D
:10531000C410C06C03E0134800EBC41000691149CD
:1053200001EBC411C8640F4800EBC41090ED130AE0
:10533000B8EE400AF6EE000A60EE200A9FED0A1A67
:1053400080EE810AF6EE000A30EE200ABDEEC00AB9
:1053500010EE100A034901EBC411C96D014405E0C8
:105360004BE049E0B474002000007A44264800EB8A
:10537000C410C165244800EBC410816B224800EBC7
:10538000C41090ED0C0AB8EE400AF6EE000A60EE8A
:10539000200AB7EE001AB6EE000A00EE810ABDEE52
:1053A000C00A10EE100A814221D9174800EBC41040
:1053B00090ED0E0AB8EE400A134800EBC410D0ED91
:1053C0000C0AF8EE600AB6EE001A60EE810AB7EE3B
:1053D000001A00EEC10AF6EE000A30EE200ABDEE19
:1053E000C00A094800EBC41080ED0E0A04E0002159
:1053F000054800EBC410816300E000BF00BF024815
:1054000000EBC410C06C10BDB47400202DE9F05F37
:1054100004460E4615461F46DDE90CABDDE90A8958
:10542000164800EBC4100670144800EBC4108560E9
:10543000124800EBC410C564104800EBC410C760EC
:105440000E4800EBC410C0F810800C4800EBC410EC
:10545000C0F85890094800EBC410C0F81CA00748D9
:1054600000EBC410C0F820B02046FEF791FA2046A9
:105470000AF0FEFC0020BDE8F09F0000B47400209C
:105480000748006800F0006040B10548806840F0BF
:1054900000600349886000200249086370470000EB
:1054A00000600240EC0200200748406800F0200045
:1054B00040B10548C06840F020000349C8600020A2
:1054C000024908607047000000600240EC020020C2
:1054D0000548406800F4001028B10348C06840F453
:1054E00000100149C86070470060024005484068EC
:1054F00000F0006028B10348C06840F00060014936
:10550000C8607047006002400B48006800F400105B
:1055100080B109480830006840F40010064908319D
:1055200008600648D0F80801012803D10220034989
:10553000C1F808017047000000640240D407002051
:105540000A48006800F0006070B108480830006840
:1055500040F00060054908310860054800680128EE
:1055600002D1022002490860704700000064024036
:10557000D40700200648006800F4001038B1044841
:105580000830006840F40010014908310860704795
:10559000046402400848006800F0006050B106480A
:1055A0000830006840F000600349083108600020BE
:1055B000024908607047000004640240EC020020C9
:1055C0001CB500206421134ACDE9001092F818128E
:1055D00002F58873D2F814020F4A03F04FFB04203F
:1055E00064210C4ACDE9001092F8201202F1080360
:1055F000D2F81C02084A03F041FB03233A2201219E
:10560000062003F013FC03233B220021062003F0B5
:105610000DFC1CBDD40700200C30014010B500214A
:105620004E48C0F8C41F102003F060F808B90120EC
:1056300000E0002004463222214649480BF077FB67
:10564000C0B14848D0F8EC03A0B9474890F8C80169
:1056500080B94248D0F8C40F20B902214148C0F8AF
:10566000B81B07E03F48D0F8E803012802D13E49C3
:1056700081F8C801112003F039F8012800D100E0B9
:10568000002004463222214638480BF050FB10B36C
:105690003448D0F8EC03F0B9334890F8C801D0B9D9
:1056A0002E48D0F8C40F48B92E48D0F8E803022895
:1056B00011D101212B48C0F8B81B0CE02948D0F8C3
:1056C000E803012807D1284890F8CA01012802D12F
:1056D000254981F8BC01122003F008F808B901201F
:1056E00000E0002004463222214621480BF01FFB37
:1056F00018B103211B48C0F8B81B132002F0F6FFB5
:1057000008B9012000E00020044632222146194851
:105710000BF00DFB18B101211248C0F8B81B132083
:1057200002F0E4FF012800D100E0002004462146F9
:1057300011480BF0E7FA32280FD901210948C0F8C7
:10574000EC13002403E02046FCF7D0FF641C0C2C73
:10575000F9DB04210348C0F8B81B10BD0C1D002064
:10576000740100206C0D0020D45A00207C01002020
:105770008C0100208401002094010020052118489C
:10578000C0F8D018D0F8E80B20B902211448C0F8AE
:10579000A41823E001211248C0F8A418D0F8E80B9F
:1057A000012806D0022809D003280CD0042814D1DF
:1057B0000EE001210A48C0F8AC180EE005210848A7
:1057C000C0F8AC1809E00A210548C0F8AC1804E09C
:1057D00032210348C0F8AC1800BF00BF704700007A
:1057E0006C0D002070B504465E48D0F8E80302282E
:1057F00018D15D48D0F8CC0F012809D15A48D0F80B
:10580000B40F012804D100210C2007F086FF03E02B
:1058100001210C2007F081FF0021092007F07DFF06
:10582000012020700C2002F061FF08B9012000E087
:105830000020054629464D480BF064FA01464C48C5
:10584000D0F8D000814203D901204A49086002E023
:105850000020484908604348D0F8E803022800D0F7
:1058600070BD2078012805D1607818B901206070DA
:105870000020A0706078012804D0022824D00328DA
:105880006DD155E03B480068012803D03648D0F878
:10589000B40FC0B9012038494860324890ED320A4F
:1058A000084680ED020A324890ED651AF0EE410A92
:1058B00090ED031AB8EEC11AB0EE410A0020FCF7D1
:1058C00021FE022060704AE00020FCF7F0FEB8B92B
:1058D000274890ED640ABDEEC00A10EE101A0020B1
:1058E00001F0F4FF00202449486001F06BFC012026
:1058F000224981F8E00181F8A8000320607016E0D9
:105900001B4890ED650AB0EE001AC0EE010A1A4875
:1059100090ED020A30EE800A1248D0ED320AB4EE61
:10592000E00AF1EE10FA02D800201349486016E0B0
:10593000124890F8A80088B9104890F8E00168B9BA
:105940000F480FF0E9FB0E4890ED020AB8EEC00ACE
:10595000074880ED960A00202070607000BF00BFED
:1059600000BF7DE76C0D00200C1D002014010020FD
:10597000AC2C002018010020CC5C0020D45A002060
:10598000D85C002001460C2904DA044850F82100B4
:10599000008870474FF0FF30FBE70000B0040020A4
:1059A00002460C2A05DA044850F822000180002043
:1059B00070474FF0FF30FBE7B00400203CB500918A
:1059C0009DED000AB8EE400AF0EE000A20EE200A33
:1059D000DFED2E0A80EE201AB6EE000A31EE000A44
:1059E000BDEEC00A8DED010A2DE000EE102AB8EEE2
:1059F000400AF0EE000A60EE200A9FED241A80EEC5
:105A0000810AF6EE000A30EE200ABDEEC00A10EE62
:105A1000104A009D2C4400949DED000AB8EE400A07
:105A2000F0EE000A20EE200A9FED181AC0EE010ADF
:105A3000B6EE000A30EE800ABDEEC00A10EE104A43
:105A4000019D2C440194019C9C42CED39DED000A03
:105A5000B8EE400AF0EE000A20EE200A9FED0B1A85
:105A6000C0EE010A9DED010AB8EE400A30EE600A70
:105A7000F6EE000A30EE200ABDEEC00A8DED010AF6
:105A8000DDE90045C0E900453CBD000000007A4466
:105A90003CB500919DED000AB8EE400AF0EE000A18
:105AA00020EE200ADFED2F0A80EE201AB6EE000A63
:105AB00031EE000ABDEEC00A8DED010A13B90024D3
:105AC00001944AE02DE000EE103AB8EE400AF0EE04
:105AD000000A20EE200A9FED231AC0EE010AB6EE5E
